:030000000208AF44
:0C08AF00787FE4F6D8FD7581520208F64F
:1006B800456E74657220616363657373636F646507
:1006C80000416363657373204772616E74656400EB
:1006D800446F6F72206F70656E696E672E2E2E00E4
:1006E8004163636573732044656E6965640053797B
:1006F8007374656D206C6F636B6564004F6E6C7905
:10070800207468652061646D696E00697320616C8E
:100718006C6F77656400456E7465722061646D69FD
:100728006E20636F64650053797374656D20756E10
:100738006C6F636B65640050617373776F726420CC
:1007480077726F6E6700446F6F7220636C6F7369A6
:100758006E672E2E2E0050656F706C6520696E7363
:0707680069646500256400CF
:100A3E00024700000245000002420000063C31322F
:100A4E003334350006363134353637000222000095
:080A5E0002490000022F000014
:0909B5007F2A120B5A7F057E0017
:0409BE00AB07AA06D3
:1009C2009000007C037DE8AF03AE02120378D3E50A
:1009D200829FE5839E5011E4FFFE0FBF00010EEFE0
:0809E200640B4E70F5A380DBED
:0109EA0022EA
:100B1B00D2A3C2A0D2A130A30DC2A27F017E00122C
:070B2B0009BED2A280F022F6
:0C0B6A00D2A27F017E001209BEC2A222AE
:040B32007F017E00C1
:100B36008E088F09120B1BC2A1C2A0850980020B69
:010B46006A44
:100B5A00A907120B1BC2A08980C2A1D2A0020B6AEC
:100AFC007F307E00120B367F387E00120B36120BC5
:0F0B0C00327F0F7E00120B367F807E00020B3689
:050B7D00D2A0020B5A9A
:100AB4008B088A09890AAB08AA09A90A12035F608C
:100AC40013050AE50A7002050914F912035FFF12FF
:050AD4000B7D80E22211
:10093B00C2A7D2B0D2B1D2B220A4061209B57F3170
:10094B002220A5061209B57F322220A6061209B570
:10095B007F3322D2A7C2B0D2B1D2B220A4061209E1
:10096B00B57F342220A5061209B57F352220A606B5
:10097B001209B57F3622D2A7D2B0C2B1D2B220A40F
:10098B00061209B57F372220A5061209B57F38223A
:10099B0020A6061209B57F3922D2A7D2B0D2B1C296
:0A09AB00B220A58C1209B57F30229E
:1005D500120AFC120B327E007F057D007B007A003B
:1005E500792A1205347BFF7A0679B8120AB47FC0DE
:1005F5007E00120B36E4F547F54812093B742A25AF
:1006050048F8A6070548E54870020547C39405E57F
:1006150047940040E5120B32783C7C007D007B005E
:100625007A00792A7E007F05120510EF7027FE7F7C
:1006350005FDFB7A00792A120534120B327BFF7A0D
:100645000679C9120AB4120B327BFF7A0679D812E1
:100655000AB402076F120B327BFF7A0679E8120A99
:10066500B47E007F057D007B007A00792A1205346F
:100675000534E53470020533640345336003020530
:10068500D5F533F5347F01FE120B367BFF7A0679FB
:10069500F6120AB4E4F531F532120A150532E532DF
:1006A50070020531C39419E531940040EC12081429
:0306B5000205D566
:10081400120AFC120B327BFF7A077904120AB47FA6
:10082400C07E00120B367BFF7A077913120AB412CA
:100834000B327E007F057D007B007A00792412054F
:10084400347BFF7A07791E120AB47FC07E00120B34
:1008540036E4F547F54812093B74242548F8A60701
:100864000548E54870020547C39405E547940040F0
:10087400E578247C007D007B007A0079367E007F59
:1008840005120510EF70127F01FE120B367BFF7A02
:1008940007792F120AB40205D5120B327BFF7A07AF
:0B08A400793F120AB412081402081475
:100B4700758901758CA5758AFFD28C308DFDC28D94
:030B5700C28C222B
:10076F00D296C297D2B3752902AF291209EBE529A8
:10077F00700CC2B3D2B7D2B6D2B5D2B480107F3C10
:10078F007E00120AD91529E529C3940050DB0523F1
:10079F00E52370020522E4F535120A150535E53516
:1007AF00C3940540F4120B327BFF7A07794E120A7D
:1007BF00B4120B327BFF7A07795E120AB47FC07EC8
:1007CF0000120B36750BFF750C07750D6C85220E1D
:1007DF0085230F7B007A00794E12005F7B007A0031
:1007EF00794E120AB47F017E00120AD9D296D2979F
:1007FF00120B47C296D297120B47C296C2977F052C
:05080F007E00020AD981
:1009EB00BF0109C2B6C2B5C2B4D2B722BF0209C297
:1009FB00B7C2B5C2B4D2B622EF700EC2B7C2B6C27E
:0A0A0B00B5C2B47F01FE120AD92221
:100A1500E4F508F509D294E4FFFE120A8EC294E4C7
:100A2500FFFE120A8E0509E50970020508C39464E4
:080A3500E5086480948040DDB7
:010A3D002296
:100A8E00E4FDFCD3ED9FEE6480F8EC648098501585
:100A9E00E4FBFA0BBB00010AEB640A4A70F50DBDCC
:050AAE0000010C80DED8
:010AB3002220
:100AD900E4FDFCC3ED9FEC9E5018E4FBFA120B47B2
:100AE9000BBB00010AEB64284A70F20DBD00010C32
:020AF90080E19A
:010AFB0022D8
:070B7600C2B31205D580F99E
:1008BB00020B76E493A3F8E493A34003F68001F2D2
:1008CB0008DFF48029E493A3F85407240CC8C3333E
:1008DB00C4540F4420C8834004F456800146F6DF0D
:1008EB00E4800B0102040810204080900A3EE47E55
:1008FB00019360BCA3FF543F30E509541FFEE49302
:10090B00A360010ECF54C025E060A840B8E493A3C8
:10091B00FAE493A3F8E493A3C8C582C8CAC583CAF3
:10092B00F0A3C8C582C8CAC583CADFE9DEE780BEAB
:010A6600008F
:10035F00BB010689828A83E0225002E722BBFE029C
:09036F00E32289828A83E49322CF
:10037800EF8DF0A4A8F0CF8CF0A428CE8DF0A42E99
:02038800FE2253
:10000300E517240BF8E60517227808300702780B6A
:10001300E475F00112059F02035F2000EB7F2ED2EF
:10002300008018EF540F2490D43440D4FF30040BD5
:10003300EF24BFB41A0050032461FFE518600215D2
:1000430018051BE51B7002051A30070D7808E475C7
:10005300F00112059FEF02058D020A677403D207B0
:100063008003E4C207F5178B088A09890AE4F518A7
:10007300F51AF51BE51860077F2012003E80F57521
:1000830019FFC201C200C202C203C205C206C208EE
:1000930012000CFF700D3007057F0012004FAF1BDD
:1000A300AE1A22B4255FC2D5C20412000CFF24D0BD
:1000B300B40A00501A75F00A781830D50508B6FF4F
:1000C3000106C6A426F620D5047002D20380D924E3
:1000D300CFB41A00EF5004C2E5D20402024FD2019A
:1000E30080C6D20080C0D20280BCD2D580BAD205ED
:1000F30080B47F2012003E2002077401B51800402F
:10010300F1120003FF12003E020077D208D20680EC
:1001130095120003FB120003FA120003F94A4B7015
:100123000679207A037BFF20022EE518602A7E00E1
:100133008E8275830012056060060EEE651970F0FD
:10014300C2D5EBC0E0EAC0E0E9C0E0EE120296D00F
:10015300E0F9D0E0FAD0E0FB12035FFF60AAEBC046
:10016300E0EAC0E0E9C0E012003ED0E02401F9D0AB
:10017300E03400FAD0E0FBE5190460DCD519D9803E
:10018300877BFF7A027992D202809C791080027970
:1001930008C206C2088008D2D5790A8004790AC247
:1001A300D5E519047002F519E4FAFDFEFF12000308
:1001B300FC7B08200113120003FD7B1030000A12A0
:1001C3000003FE120003FF7B20EC3382D592D5504F
:1001D30013C3E43000069FFFE49EFEE42001039D69
:1001E300FDE49CFCE4CBF8C201EC700CCFCECDCC8B
:1001F300E824F8F870F38017C3EF33FFEE33FEED16
:1002030033FDEC33FCEB33FB994002FB0FD8E9EBF6
:10021300300105F8D0E0C448B201C0E00AEC4D4E0D
:100223004F78207B0070C2EAB5190040BCC0E012D1
:100233000298D0F0D0E0200104C4C0E0C4B201C0F1
:10024300F0120027D0F0D5F0EB0200771205AF01D2
:100253001453018E5800E54C00E14201924F019A7C
:0F02630044019A4900FA4301A0550184460184E1
:100272004501844703405000E92D00ED2E01102B6B
:1002820000F123010E2003292A00A94800000108D9
:100292003F3F3F00790AA2D5200314300509B91067
:1002A200020404B9080104A2D52006025001042068
:1002B20002689202B518005034C0E07F2030031962
:1002C2007F30A20272067205500F1202EFC202C202
:1002D20006C205C2087F30800F300503E9C0E01274
:1002E200003E300503D0E0F9D0E0B518CC30051758
:1002F2007F30B9100C12003E7F583004077F78809F
:1003020003B9080312003E3002057F2D02003E7F32
:10031200202008F87F2B2006F322920280CF286E3D
:10032200756C6C2900D2011200033001F8C2017809
:100332001830D50108F60200A92D50434958120081
:10034200032403B405004001E490033B9312002F01
:0D035200743A12002FD20375180402018EB8
:10038A00E3F5F009E208B5F06BDFF58067E3F5F015
:10039A0009E608B5F05EDFF5805A87F009E608B588
:1003AA00F052DFF6804E87F009E208B5F046DFF634
:1003BA00804288828C8387F009E0A3B5F036DFF6A5
:1003CA00803288828C8387F009E493A3B5F025DF15
:1003DA00F5802188828C83E3F5F009E0A3B5F01457
:1003EA00DFF5801088828C83E3F5F009E493A3B5E6
:1003FA00F002DFF40204B9808780E9809080D4801B
:10040A003E8015806E807E809D80B7808D80A3801F
:10041A00518074803C0204C589828A83ECFAE49391
:10042A00F5F0A3C8C582C8CCC583CCE493A3C8C5DC
:10043A0082C8CCC583CCB5F076DFE3DEE180708973
:10044A00828A83E493F5F0A3E208B5F062DFF480D0
:10045A005E89828A83E0F5F0A3E608B5F051DFF5FC
:10046A00804D89828A83E0F5F0A3E208B5F040DF87
:10047A00F5803C89828A83E493F5F0A3E608B5F017
:10048A002EDFF4802A8002805789828A83ECFAE47C
:10049A0093F5F0A3C8C582C8CCC583CCE0A3C8C570
:1004AA0082C8CCC583CCB5F006DFE4DEE280007FEB
:1004BA00FFB5F0020F2240027F012289828A83EC73
:1004CA00FAE0F5F0A3C8C582C8CCC583CCE0A3C8BE
:1004DA00C582C8CCC583CCB5F0D5DFE5DEE380CFD5
:1004EA0089828A83ECFAE0F5F0A3C8C582C8CCC534
:1004FA0083CCE493A3C8C582C8CCC583CCB5F0AF7E
:10050A00DFE4DEE280A988F0EF60010E4E60ABED19
:10051A002402B404005098F582EB2402B40400507B
:0A052A008E23234582239004017301
:10053400EF4E6012EF60010EEDBB010B89828A83DE
:10054400F0A3DFFCDEFA2289F05007F709DFFCA9EB
:0C055400F022BBFEFCF309DFFCA9F02242
:10056000BB010CE58229F582E5833AF583E0225050
:1005700006E92582F8E622BBFE06E92582F8E2229A
:0D058000E58229F582E5833AF583E49322B4
:10058D00BB010689828A83F0225002F722BBFE014D
:02059D00F32247
:10059F00FAE6FB0808E6F925F0F618E6CA3AF6225D
:1005AF00D083D082F8E4937012740193700DA3A3DB
:1005BF0093F8740193F5828883E4737402936860EF
:0605CF00EFA3A3A380DFEF
:100A6700EFB40A07740D120A72740A309811A89924
:100A7700B8130CC2983098FDA899C298B811F630EF
:070A870099FDC299F59922C7
:00000001FF
